{
	"ethers-waffle-workshops/contracts/EtherSplitter.sol": {
		"EtherSplitter": {
			"abi": [
				{
					"inputs": [
						{
							"internalType": "address payable",
							"name": "_user1",
							"type": "address"
						},
						{
							"internalType": "address payable",
							"name": "_user2",
							"type": "address"
						}
					],
					"stateMutability": "nonpayable",
					"type": "constructor"
				},
				{
					"inputs": [],
					"name": "eth_split",
					"outputs": [
						{
							"internalType": "bool",
							"name": "ok",
							"type": "bool"
						}
					],
					"stateMutability": "payable",
					"type": "function"
				}
			],
			"devdoc": {
				"kind": "dev",
				"methods": {},
				"version": 1
			},
			"evm": {
				"assembly": "    /* \"ethers-waffle-workshops/contracts/EtherSplitter.sol\":78:951  contract EtherSplitter {... */\n  mstore(0x40, 0x80)\n    /* \"ethers-waffle-workshops/contracts/EtherSplitter.sol\":162:277  constructor(address payable _user1, address payable _user2) {... */\n  callvalue\n  dup1\n  iszero\n  tag_1\n  jumpi\n  0x00\n  dup1\n  revert\ntag_1:\n  pop\n  mload(0x40)\n  sub(codesize, bytecodeSize)\n  dup1\n  bytecodeSize\n  dup4\n  codecopy\n  dup2\n  dup2\n  add\n  0x40\n  mstore\n  dup2\n  add\n  swap1\n  tag_2\n  swap2\n  swap1\n  tag_3\n  jump\t// in\ntag_2:\n    /* \"ethers-waffle-workshops/contracts/EtherSplitter.sol\":240:246  _user1 */\n  dup2\n    /* \"ethers-waffle-workshops/contracts/EtherSplitter.sol\":232:237  user1 */\n  0x00\n  dup1\n    /* \"ethers-waffle-workshops/contracts/EtherSplitter.sol\":232:246  user1 = _user1 */\n  0x0100\n  exp\n  dup2\n  sload\n  dup2\n  0xffffffffffffffffffffffffffffffffffffffff\n  mul\n  not\n  and\n  swap1\n  dup4\n  0xffffffffffffffffffffffffffffffffffffffff\n  and\n  mul\n  or\n  swap1\n  sstore\n  pop\n    /* \"ethers-waffle-workshops/contracts/EtherSplitter.sol\":264:270  _user2 */\n  dup1\n    /* \"ethers-waffle-workshops/contracts/EtherSplitter.sol\":256:261  user2 */\n  0x01\n  0x00\n    /* \"ethers-waffle-workshops/contracts/EtherSplitter.sol\":256:270  user2 = _user2 */\n  0x0100\n  exp\n  dup2\n  sload\n  dup2\n  0xffffffffffffffffffffffffffffffffffffffff\n  mul\n  not\n  and\n  swap1\n  dup4\n  0xffffffffffffffffffffffffffffffffffffffff\n  and\n  mul\n  or\n  swap1\n  sstore\n  pop\n    /* \"ethers-waffle-workshops/contracts/EtherSplitter.sol\":162:277  constructor(address payable _user1, address payable _user2) {... */\n  pop\n  pop\n    /* \"ethers-waffle-workshops/contracts/EtherSplitter.sol\":78:951  contract EtherSplitter {... */\n  jump(tag_6)\n    /* \"#utility.yul\":7:166   */\ntag_8:\n    /* \"#utility.yul\":72:77   */\n  0x00\n    /* \"#utility.yul\":103:109   */\n  dup2\n    /* \"#utility.yul\":97:110   */\n  mload\n    /* \"#utility.yul\":88:110   */\n  swap1\n  pop\n    /* \"#utility.yul\":119:160   */\n  tag_10\n    /* \"#utility.yul\":154:159   */\n  dup2\n    /* \"#utility.yul\":119:160   */\n  tag_11\n  jump\t// in\ntag_10:\n    /* \"#utility.yul\":7:166   */\n  swap3\n  swap2\n  pop\n  pop\n  jump\t// out\n    /* \"#utility.yul\":172:711   */\ntag_3:\n    /* \"#utility.yul\":267:273   */\n  0x00\n    /* \"#utility.yul\":275:281   */\n  dup1\n    /* \"#utility.yul\":324:326   */\n  0x40\n    /* \"#utility.yul\":312:321   */\n  dup4\n    /* \"#utility.yul\":303:310   */\n  dup6\n    /* \"#utility.yul\":299:322   */\n  sub\n    /* \"#utility.yul\":295:327   */\n  slt\n    /* \"#utility.yul\":292:411   */\n  iszero\n  tag_13\n  jumpi\n    /* \"#utility.yul\":330:409   */\n  tag_14\n  tag_15\n  jump\t// in\ntag_14:\n    /* \"#utility.yul\":292:411   */\ntag_13:\n    /* \"#utility.yul\":450:451   */\n  0x00\n    /* \"#utility.yul\":475:547   */\n  tag_16\n    /* \"#utility.yul\":539:546   */\n  dup6\n    /* \"#utility.yul\":530:536   */\n  dup3\n    /* \"#utility.yul\":519:528   */\n  dup7\n    /* \"#utility.yul\":515:537   */\n  add\n    /* \"#utility.yul\":475:547   */\n  tag_8\n  jump\t// in\ntag_16:\n    /* \"#utility.yul\":465:547   */\n  swap3\n  pop\n    /* \"#utility.yul\":421:557   */\n  pop\n    /* \"#utility.yul\":596:598   */\n  0x20\n    /* \"#utility.yul\":622:694   */\n  tag_17\n    /* \"#utility.yul\":686:693   */\n  dup6\n    /* \"#utility.yul\":677:683   */\n  dup3\n    /* \"#utility.yul\":666:675   */\n  dup7\n    /* \"#utility.yul\":662:684   */\n  add\n    /* \"#utility.yul\":622:694   */\n  tag_8\n  jump\t// in\ntag_17:\n    /* \"#utility.yul\":612:694   */\n  swap2\n  pop\n    /* \"#utility.yul\":567:704   */\n  pop\n    /* \"#utility.yul\":172:711   */\n  swap3\n  pop\n  swap3\n  swap1\n  pop\n  jump\t// out\n    /* \"#utility.yul\":798:902   */\ntag_20:\n    /* \"#utility.yul\":843:850   */\n  0x00\n    /* \"#utility.yul\":872:896   */\n  tag_22\n    /* \"#utility.yul\":890:895   */\n  dup3\n    /* \"#utility.yul\":872:896   */\n  tag_23\n  jump\t// in\ntag_22:\n    /* \"#utility.yul\":861:896   */\n  swap1\n  pop\n    /* \"#utility.yul\":798:902   */\n  swap2\n  swap1\n  pop\n  jump\t// out\n    /* \"#utility.yul\":908:1034   */\ntag_23:\n    /* \"#utility.yul\":945:952   */\n  0x00\n    /* \"#utility.yul\":985:1027   */\n  0xffffffffffffffffffffffffffffffffffffffff\n    /* \"#utility.yul\":978:983   */\n  dup3\n    /* \"#utility.yul\":974:1028   */\n  and\n    /* \"#utility.yul\":963:1028   */\n  swap1\n  pop\n    /* \"#utility.yul\":908:1034   */\n  swap2\n  swap1\n  pop\n  jump\t// out\n    /* \"#utility.yul\":1163:1280   */\ntag_15:\n    /* \"#utility.yul\":1272:1273   */\n  0x00\n    /* \"#utility.yul\":1269:1270   */\n  dup1\n    /* \"#utility.yul\":1262:1274   */\n  revert\n    /* \"#utility.yul\":1286:1424   */\ntag_11:\n    /* \"#utility.yul\":1367:1399   */\n  tag_29\n    /* \"#utility.yul\":1393:1398   */\n  dup2\n    /* \"#utility.yul\":1367:1399   */\n  tag_20\n  jump\t// in\ntag_29:\n    /* \"#utility.yul\":1360:1365   */\n  dup2\n    /* \"#utility.yul\":1357:1400   */\n  eq\n    /* \"#utility.yul\":1347:1418   */\n  tag_30\n  jumpi\n    /* \"#utility.yul\":1414:1415   */\n  0x00\n    /* \"#utility.yul\":1411:1412   */\n  dup1\n    /* \"#utility.yul\":1404:1416   */\n  revert\n    /* \"#utility.yul\":1347:1418   */\ntag_30:\n    /* \"#utility.yul\":1286:1424   */\n  pop\n  jump\t// out\n    /* \"ethers-waffle-workshops/contracts/EtherSplitter.sol\":78:951  contract EtherSplitter {... */\ntag_6:\n  dataSize(sub_0)\n  dup1\n  dataOffset(sub_0)\n  0x00\n  codecopy\n  0x00\n  return\nstop\n\nsub_0: assembly {\n        /* \"ethers-waffle-workshops/contracts/EtherSplitter.sol\":78:951  contract EtherSplitter {... */\n      mstore(0x40, 0x80)\n      jumpi(tag_1, lt(calldatasize, 0x04))\n      shr(0xe0, calldataload(0x00))\n      dup1\n      0x5bc8ee65\n      eq\n      tag_2\n      jumpi\n    tag_1:\n      0x00\n      dup1\n      revert\n        /* \"ethers-waffle-workshops/contracts/EtherSplitter.sol\":643:949  function eth_split() payable public  returns (bool ok) {... */\n    tag_2:\n      tag_3\n      tag_4\n      jump\t// in\n    tag_3:\n      mload(0x40)\n      tag_5\n      swap2\n      swap1\n      tag_6\n      jump\t// in\n    tag_5:\n      mload(0x40)\n      dup1\n      swap2\n      sub\n      swap1\n      return\n    tag_4:\n        /* \"ethers-waffle-workshops/contracts/EtherSplitter.sol\":689:696  bool ok */\n      0x00\n        /* \"ethers-waffle-workshops/contracts/EtherSplitter.sol\":708:716  uint eth */\n      dup1\n        /* \"ethers-waffle-workshops/contracts/EtherSplitter.sol\":719:728  msg.value */\n      callvalue\n        /* \"ethers-waffle-workshops/contracts/EtherSplitter.sol\":708:728  uint eth = msg.value */\n      swap1\n      pop\n        /* \"ethers-waffle-workshops/contracts/EtherSplitter.sol\":738:754  uint payable_eth */\n      0x00\n        /* \"ethers-waffle-workshops/contracts/EtherSplitter.sol\":763:764  2 */\n      0x02\n        /* \"ethers-waffle-workshops/contracts/EtherSplitter.sol\":757:760  eth */\n      dup3\n        /* \"ethers-waffle-workshops/contracts/EtherSplitter.sol\":757:764  eth / 2 */\n      tag_8\n      swap2\n      swap1\n      tag_9\n      jump\t// in\n    tag_8:\n        /* \"ethers-waffle-workshops/contracts/EtherSplitter.sol\":738:764  uint payable_eth = eth / 2 */\n      swap1\n      pop\n        /* \"ethers-waffle-workshops/contracts/EtherSplitter.sol\":774:795  uint return_to_sender */\n      0x00\n        /* \"ethers-waffle-workshops/contracts/EtherSplitter.sol\":804:805  2 */\n      0x02\n        /* \"ethers-waffle-workshops/contracts/EtherSplitter.sol\":798:801  eth */\n      dup4\n        /* \"ethers-waffle-workshops/contracts/EtherSplitter.sol\":798:805  eth % 2 */\n      tag_10\n      swap2\n      swap1\n      tag_11\n      jump\t// in\n    tag_10:\n        /* \"ethers-waffle-workshops/contracts/EtherSplitter.sol\":774:805  uint return_to_sender = eth % 2 */\n      swap1\n      pop\n        /* \"ethers-waffle-workshops/contracts/EtherSplitter.sol\":836:859  pay(user1, payable_eth) */\n      tag_12\n        /* \"ethers-waffle-workshops/contracts/EtherSplitter.sol\":840:845  user1 */\n      0x00\n      dup1\n      sload\n      swap1\n      0x0100\n      exp\n      swap1\n      div\n      0xffffffffffffffffffffffffffffffffffffffff\n      and\n        /* \"ethers-waffle-workshops/contracts/EtherSplitter.sol\":847:858  payable_eth */\n      dup4\n        /* \"ethers-waffle-workshops/contracts/EtherSplitter.sol\":836:839  pay */\n      tag_13\n        /* \"ethers-waffle-workshops/contracts/EtherSplitter.sol\":836:859  pay(user1, payable_eth) */\n      jump\t// in\n    tag_12:\n        /* \"ethers-waffle-workshops/contracts/EtherSplitter.sol\":816:859  return_to_sender += pay(user1, payable_eth) */\n      dup2\n      tag_14\n      swap2\n      swap1\n      tag_15\n      jump\t// in\n    tag_14:\n      swap1\n      pop\n        /* \"ethers-waffle-workshops/contracts/EtherSplitter.sol\":889:912  pay(user2, payable_eth) */\n      tag_16\n        /* \"ethers-waffle-workshops/contracts/EtherSplitter.sol\":893:898  user2 */\n      0x01\n      0x00\n      swap1\n      sload\n      swap1\n      0x0100\n      exp\n      swap1\n      div\n      0xffffffffffffffffffffffffffffffffffffffff\n      and\n        /* \"ethers-waffle-workshops/contracts/EtherSplitter.sol\":900:911  payable_eth */\n      dup4\n        /* \"ethers-waffle-workshops/contracts/EtherSplitter.sol\":889:892  pay */\n      tag_13\n        /* \"ethers-waffle-workshops/contracts/EtherSplitter.sol\":889:912  pay(user2, payable_eth) */\n      jump\t// in\n    tag_16:\n        /* \"ethers-waffle-workshops/contracts/EtherSplitter.sol\":869:912  return_to_sender += pay(user2, payable_eth) */\n      dup2\n      tag_17\n      swap2\n      swap1\n      tag_15\n      jump\t// in\n    tag_17:\n      swap1\n      pop\n        /* \"ethers-waffle-workshops/contracts/EtherSplitter.sol\":938:942  true */\n      0x01\n        /* \"ethers-waffle-workshops/contracts/EtherSplitter.sol\":931:942  return true */\n      swap4\n      pop\n      pop\n      pop\n      pop\n        /* \"ethers-waffle-workshops/contracts/EtherSplitter.sol\":643:949  function eth_split() payable public  returns (bool ok) {... */\n      swap1\n      jump\t// out\n        /* \"ethers-waffle-workshops/contracts/EtherSplitter.sol\":416:637  function pay(address payable addr, uint sum) private returns (uint amount_left) {... */\n    tag_13:\n        /* \"ethers-waffle-workshops/contracts/EtherSplitter.sol\":478:494  uint amount_left */\n      0x00\n        /* \"ethers-waffle-workshops/contracts/EtherSplitter.sol\":506:516  bool check */\n      dup1\n        /* \"ethers-waffle-workshops/contracts/EtherSplitter.sol\":534:538  addr */\n      dup4\n        /* \"ethers-waffle-workshops/contracts/EtherSplitter.sol\":534:543  addr.send */\n      0xffffffffffffffffffffffffffffffffffffffff\n      and\n        /* \"ethers-waffle-workshops/contracts/EtherSplitter.sol\":534:548  addr.send(sum) */\n      0x08fc\n        /* \"ethers-waffle-workshops/contracts/EtherSplitter.sol\":544:547  sum */\n      dup5\n        /* \"ethers-waffle-workshops/contracts/EtherSplitter.sol\":534:548  addr.send(sum) */\n      swap1\n      dup2\n      iszero\n      mul\n      swap1\n      mload(0x40)\n      0x00\n      mload(0x40)\n      dup1\n      dup4\n      sub\n      dup2\n      dup6\n      dup9\n      dup9\n      call\n      swap4\n      pop\n      pop\n      pop\n      pop\n        /* \"ethers-waffle-workshops/contracts/EtherSplitter.sol\":526:548  check = addr.send(sum) */\n      swap1\n      pop\n        /* \"ethers-waffle-workshops/contracts/EtherSplitter.sol\":571:576  false */\n      0x00\n        /* \"ethers-waffle-workshops/contracts/EtherSplitter.sol\":562:576  check == false */\n      iszero\n      iszero\n        /* \"ethers-waffle-workshops/contracts/EtherSplitter.sol\":562:567  check */\n      dup2\n        /* \"ethers-waffle-workshops/contracts/EtherSplitter.sol\":562:576  check == false */\n      iszero\n      iszero\n      eq\n        /* \"ethers-waffle-workshops/contracts/EtherSplitter.sol\":558:613  if (check == false) {... */\n      iszero\n      tag_20\n      jumpi\n        /* \"ethers-waffle-workshops/contracts/EtherSplitter.sol\":599:602  sum */\n      dup3\n        /* \"ethers-waffle-workshops/contracts/EtherSplitter.sol\":592:602  return sum */\n      swap2\n      pop\n      pop\n      jump(tag_18)\n        /* \"ethers-waffle-workshops/contracts/EtherSplitter.sol\":558:613  if (check == false) {... */\n    tag_20:\n        /* \"ethers-waffle-workshops/contracts/EtherSplitter.sol\":629:630  0 */\n      0x00\n        /* \"ethers-waffle-workshops/contracts/EtherSplitter.sol\":622:630  return 0 */\n      swap2\n      pop\n      pop\n        /* \"ethers-waffle-workshops/contracts/EtherSplitter.sol\":416:637  function pay(address payable addr, uint sum) private returns (uint amount_left) {... */\n    tag_18:\n      swap3\n      swap2\n      pop\n      pop\n      jump\t// out\n        /* \"#utility.yul\":7:116   */\n    tag_22:\n        /* \"#utility.yul\":88:109   */\n      tag_24\n        /* \"#utility.yul\":103:108   */\n      dup2\n        /* \"#utility.yul\":88:109   */\n      tag_25\n      jump\t// in\n    tag_24:\n        /* \"#utility.yul\":83:86   */\n      dup3\n        /* \"#utility.yul\":76:110   */\n      mstore\n        /* \"#utility.yul\":7:116   */\n      pop\n      pop\n      jump\t// out\n        /* \"#utility.yul\":122:332   */\n    tag_6:\n        /* \"#utility.yul\":209:213   */\n      0x00\n        /* \"#utility.yul\":247:249   */\n      0x20\n        /* \"#utility.yul\":236:245   */\n      dup3\n        /* \"#utility.yul\":232:250   */\n      add\n        /* \"#utility.yul\":224:250   */\n      swap1\n      pop\n        /* \"#utility.yul\":260:325   */\n      tag_27\n        /* \"#utility.yul\":322:323   */\n      0x00\n        /* \"#utility.yul\":311:320   */\n      dup4\n        /* \"#utility.yul\":307:324   */\n      add\n        /* \"#utility.yul\":298:304   */\n      dup5\n        /* \"#utility.yul\":260:325   */\n      tag_22\n      jump\t// in\n    tag_27:\n        /* \"#utility.yul\":122:332   */\n      swap3\n      swap2\n      pop\n      pop\n      jump\t// out\n        /* \"#utility.yul\":338:643   */\n    tag_15:\n        /* \"#utility.yul\":378:381   */\n      0x00\n        /* \"#utility.yul\":397:417   */\n      tag_29\n        /* \"#utility.yul\":415:416   */\n      dup3\n        /* \"#utility.yul\":397:417   */\n      tag_30\n      jump\t// in\n    tag_29:\n        /* \"#utility.yul\":392:417   */\n      swap2\n      pop\n        /* \"#utility.yul\":431:451   */\n      tag_31\n        /* \"#utility.yul\":449:450   */\n      dup4\n        /* \"#utility.yul\":431:451   */\n      tag_30\n      jump\t// in\n    tag_31:\n        /* \"#utility.yul\":426:451   */\n      swap3\n      pop\n        /* \"#utility.yul\":585:586   */\n      dup3\n        /* \"#utility.yul\":517:583   */\n      0xffffffffffffffffffffffffffffffffffffffffffffffffffffffffffffffff\n        /* \"#utility.yul\":513:587   */\n      sub\n        /* \"#utility.yul\":510:511   */\n      dup3\n        /* \"#utility.yul\":507:588   */\n      gt\n        /* \"#utility.yul\":504:611   */\n      iszero\n      tag_32\n      jumpi\n        /* \"#utility.yul\":591:609   */\n      tag_33\n      tag_34\n      jump\t// in\n    tag_33:\n        /* \"#utility.yul\":504:611   */\n    tag_32:\n        /* \"#utility.yul\":635:636   */\n      dup3\n        /* \"#utility.yul\":632:633   */\n      dup3\n        /* \"#utility.yul\":628:637   */\n      add\n        /* \"#utility.yul\":621:637   */\n      swap1\n      pop\n        /* \"#utility.yul\":338:643   */\n      swap3\n      swap2\n      pop\n      pop\n      jump\t// out\n        /* \"#utility.yul\":649:834   */\n    tag_9:\n        /* \"#utility.yul\":689:690   */\n      0x00\n        /* \"#utility.yul\":706:726   */\n      tag_36\n        /* \"#utility.yul\":724:725   */\n      dup3\n        /* \"#utility.yul\":706:726   */\n      tag_30\n      jump\t// in\n    tag_36:\n        /* \"#utility.yul\":701:726   */\n      swap2\n      pop\n        /* \"#utility.yul\":740:760   */\n      tag_37\n        /* \"#utility.yul\":758:759   */\n      dup4\n        /* \"#utility.yul\":740:760   */\n      tag_30\n      jump\t// in\n    tag_37:\n        /* \"#utility.yul\":735:760   */\n      swap3\n      pop\n        /* \"#utility.yul\":779:780   */\n      dup3\n        /* \"#utility.yul\":769:804   */\n      tag_38\n      jumpi\n        /* \"#utility.yul\":784:802   */\n      tag_39\n      tag_40\n      jump\t// in\n    tag_39:\n        /* \"#utility.yul\":769:804   */\n    tag_38:\n        /* \"#utility.yul\":826:827   */\n      dup3\n        /* \"#utility.yul\":823:824   */\n      dup3\n        /* \"#utility.yul\":819:828   */\n      div\n        /* \"#utility.yul\":814:828   */\n      swap1\n      pop\n        /* \"#utility.yul\":649:834   */\n      swap3\n      swap2\n      pop\n      pop\n      jump\t// out\n        /* \"#utility.yul\":840:930   */\n    tag_25:\n        /* \"#utility.yul\":874:881   */\n      0x00\n        /* \"#utility.yul\":917:922   */\n      dup2\n        /* \"#utility.yul\":910:923   */\n      iszero\n        /* \"#utility.yul\":903:924   */\n      iszero\n        /* \"#utility.yul\":892:924   */\n      swap1\n      pop\n        /* \"#utility.yul\":840:930   */\n      swap2\n      swap1\n      pop\n      jump\t// out\n        /* \"#utility.yul\":936:1013   */\n    tag_30:\n        /* \"#utility.yul\":973:980   */\n      0x00\n        /* \"#utility.yul\":1002:1007   */\n      dup2\n        /* \"#utility.yul\":991:1007   */\n      swap1\n      pop\n        /* \"#utility.yul\":936:1013   */\n      swap2\n      swap1\n      pop\n      jump\t// out\n        /* \"#utility.yul\":1019:1195   */\n    tag_11:\n        /* \"#utility.yul\":1051:1052   */\n      0x00\n        /* \"#utility.yul\":1068:1088   */\n      tag_44\n        /* \"#utility.yul\":1086:1087   */\n      dup3\n        /* \"#utility.yul\":1068:1088   */\n      tag_30\n      jump\t// in\n    tag_44:\n        /* \"#utility.yul\":1063:1088   */\n      swap2\n      pop\n        /* \"#utility.yul\":1102:1122   */\n      tag_45\n        /* \"#utility.yul\":1120:1121   */\n      dup4\n        /* \"#utility.yul\":1102:1122   */\n      tag_30\n      jump\t// in\n    tag_45:\n        /* \"#utility.yul\":1097:1122   */\n      swap3\n      pop\n        /* \"#utility.yul\":1141:1142   */\n      dup3\n        /* \"#utility.yul\":1131:1166   */\n      tag_46\n      jumpi\n        /* \"#utility.yul\":1146:1164   */\n      tag_47\n      tag_40\n      jump\t// in\n    tag_47:\n        /* \"#utility.yul\":1131:1166   */\n    tag_46:\n        /* \"#utility.yul\":1187:1188   */\n      dup3\n        /* \"#utility.yul\":1184:1185   */\n      dup3\n        /* \"#utility.yul\":1180:1189   */\n      mod\n        /* \"#utility.yul\":1175:1189   */\n      swap1\n      pop\n        /* \"#utility.yul\":1019:1195   */\n      swap3\n      swap2\n      pop\n      pop\n      jump\t// out\n        /* \"#utility.yul\":1201:1381   */\n    tag_34:\n        /* \"#utility.yul\":1249:1326   */\n      0x4e487b7100000000000000000000000000000000000000000000000000000000\n        /* \"#utility.yul\":1246:1247   */\n      0x00\n        /* \"#utility.yul\":1239:1327   */\n      mstore\n        /* \"#utility.yul\":1346:1350   */\n      0x11\n        /* \"#utility.yul\":1343:1344   */\n      0x04\n        /* \"#utility.yul\":1336:1351   */\n      mstore\n        /* \"#utility.yul\":1370:1374   */\n      0x24\n        /* \"#utility.yul\":1367:1368   */\n      0x00\n        /* \"#utility.yul\":1360:1375   */\n      revert\n        /* \"#utility.yul\":1387:1567   */\n    tag_40:\n        /* \"#utility.yul\":1435:1512   */\n      0x4e487b7100000000000000000000000000000000000000000000000000000000\n        /* \"#utility.yul\":1432:1433   */\n      0x00\n        /* \"#utility.yul\":1425:1513   */\n      mstore\n        /* \"#utility.yul\":1532:1536   */\n      0x12\n        /* \"#utility.yul\":1529:1530   */\n      0x04\n        /* \"#utility.yul\":1522:1537   */\n      mstore\n        /* \"#utility.yul\":1556:1560   */\n      0x24\n        /* \"#utility.yul\":1553:1554   */\n      0x00\n        /* \"#utility.yul\":1546:1561   */\n      revert\n\n    auxdata: 0xa26469706673582212208b189b67ae69cfc5c233552f65f5a5c733f6ca7f56ca5f6345a3a6a6619a87ce64736f6c63430008070033\n}\n",
				"bytecode": {
					"linkReferences": {},
					"object": "608060405234801561001057600080fd5b50604051610437380380610437833981810160405281019061003291906100cf565b816000806101000a81548173ffffffffffffffffffffffffffffffffffffffff021916908373ffffffffffffffffffffffffffffffffffffffff16021790555080600160006101000a81548173ffffffffffffffffffffffffffffffffffffffff021916908373ffffffffffffffffffffffffffffffffffffffff160217905550505061015d565b6000815190506100c981610146565b92915050565b600080604083850312156100e6576100e5610141565b5b60006100f4858286016100ba565b9250506020610105858286016100ba565b9150509250929050565b600061011a82610121565b9050919050565b600073ffffffffffffffffffffffffffffffffffffffff82169050919050565b600080fd5b61014f8161010f565b811461015a57600080fd5b50565b6102cb8061016c6000396000f3fe60806040526004361061001e5760003560e01c80635bc8ee6514610023575b600080fd5b61002b610041565b604051610038919061014e565b60405180910390f35b600080349050600060028261005691906101bf565b905060006002836100679190610206565b905061009360008054906101000a900473ffffffffffffffffffffffffffffffffffffffff16836100e3565b8161009e9190610169565b90506100cc600160009054906101000a900473ffffffffffffffffffffffffffffffffffffffff16836100e3565b816100d79190610169565b90506001935050505090565b6000808373ffffffffffffffffffffffffffffffffffffffff166108fc849081150290604051600060405180830381858888f1935050505090506000151581151514156101335782915050610139565b60009150505b92915050565b610148816101f0565b82525050565b6000602082019050610163600083018461013f565b92915050565b6000610174826101fc565b915061017f836101fc565b9250827fffffffffffffffffffffffffffffffffffffffffffffffffffffffffffffffff038211156101b4576101b3610237565b5b828201905092915050565b60006101ca826101fc565b91506101d5836101fc565b9250826101e5576101e4610266565b5b828204905092915050565b60008115159050919050565b6000819050919050565b6000610211826101fc565b915061021c836101fc565b92508261022c5761022b610266565b5b828206905092915050565b7f4e487b7100000000000000000000000000000000000000000000000000000000600052601160045260246000fd5b7f4e487b7100000000000000000000000000000000000000000000000000000000600052601260045260246000fdfea26469706673582212208b189b67ae69cfc5c233552f65f5a5c733f6ca7f56ca5f6345a3a6a6619a87ce64736f6c63430008070033",
					"opcodes": "PUSH1 0x80 PUSH1 0x40 MSTORE CALLVALUE DUP1 ISZERO PUSH2 0x10 JUMPI PUSH1 0x0 DUP1 REVERT JUMPDEST POP PUSH1 0x40 MLOAD PUSH2 0x437 CODESIZE SUB DUP1 PUSH2 0x437 DUP4 CODECOPY DUP2 DUP2 ADD PUSH1 0x40 MSTORE DUP2 ADD SWAP1 PUSH2 0x32 SWAP2 SWAP1 PUSH2 0xCF JUMP JUMPDEST DUP2 PUSH1 0x0 DUP1 PUSH2 0x100 EXP DUP2 SLOAD DUP2 PUSH20 0xFFFFFFFFFFFFFFFFFFFFFFFFFFFFFFFFFFFFFFFF MUL NOT AND SWAP1 DUP4 PUSH20 0xFFFFFFFFFFFFFFFFFFFFFFFFFFFFFFFFFFFFFFFF AND MUL OR SWAP1 SSTORE POP DUP1 PUSH1 0x1 PUSH1 0x0 PUSH2 0x100 EXP DUP2 SLOAD DUP2 PUSH20 0xFFFFFFFFFFFFFFFFFFFFFFFFFFFFFFFFFFFFFFFF MUL NOT AND SWAP1 DUP4 PUSH20 0xFFFFFFFFFFFFFFFFFFFFFFFFFFFFFFFFFFFFFFFF AND MUL OR SWAP1 SSTORE POP POP POP PUSH2 0x15D JUMP JUMPDEST PUSH1 0x0 DUP2 MLOAD SWAP1 POP PUSH2 0xC9 DUP2 PUSH2 0x146 JUMP JUMPDEST SWAP3 SWAP2 POP POP JUMP JUMPDEST PUSH1 0x0 DUP1 PUSH1 0x40 DUP4 DUP6 SUB SLT ISZERO PUSH2 0xE6 JUMPI PUSH2 0xE5 PUSH2 0x141 JUMP JUMPDEST JUMPDEST PUSH1 0x0 PUSH2 0xF4 DUP6 DUP3 DUP7 ADD PUSH2 0xBA JUMP JUMPDEST SWAP3 POP POP PUSH1 0x20 PUSH2 0x105 DUP6 DUP3 DUP7 ADD PUSH2 0xBA JUMP JUMPDEST SWAP2 POP POP SWAP3 POP SWAP3 SWAP1 POP JUMP JUMPDEST PUSH1 0x0 PUSH2 0x11A DUP3 PUSH2 0x121 JUMP JUMPDEST SWAP1 POP SWAP2 SWAP1 POP JUMP JUMPDEST PUSH1 0x0 PUSH20 0xFFFFFFFFFFFFFFFFFFFFFFFFFFFFFFFFFFFFFFFF DUP3 AND SWAP1 POP SWAP2 SWAP1 POP JUMP JUMPDEST PUSH1 0x0 DUP1 REVERT JUMPDEST PUSH2 0x14F DUP2 PUSH2 0x10F JUMP JUMPDEST DUP2 EQ PUSH2 0x15A JUMPI PUSH1 0x0 DUP1 REVERT JUMPDEST POP JUMP JUMPDEST PUSH2 0x2CB DUP1 PUSH2 0x16C PUSH1 0x0 CODECOPY PUSH1 0x0 RETURN INVALID PUSH1 0x80 PUSH1 0x40 MSTORE PUSH1 0x4 CALLDATASIZE LT PUSH2 0x1E JUMPI PUSH1 0x0 CALLDATALOAD PUSH1 0xE0 SHR DUP1 PUSH4 0x5BC8EE65 EQ PUSH2 0x23 JUMPI JUMPDEST PUSH1 0x0 DUP1 REVERT JUMPDEST PUSH2 0x2B PUSH2 0x41 JUMP JUMPDEST PUSH1 0x40 MLOAD PUSH2 0x38 SWAP2 SWAP1 PUSH2 0x14E JUMP JUMPDEST PUSH1 0x40 MLOAD DUP1 SWAP2 SUB SWAP1 RETURN JUMPDEST PUSH1 0x0 DUP1 CALLVALUE SWAP1 POP PUSH1 0x0 PUSH1 0x2 DUP3 PUSH2 0x56 SWAP2 SWAP1 PUSH2 0x1BF JUMP JUMPDEST SWAP1 POP PUSH1 0x0 PUSH1 0x2 DUP4 PUSH2 0x67 SWAP2 SWAP1 PUSH2 0x206 JUMP JUMPDEST SWAP1 POP PUSH2 0x93 PUSH1 0x0 DUP1 SLOAD SWAP1 PUSH2 0x100 EXP SWAP1 DIV PUSH20 0xFFFFFFFFFFFFFFFFFFFFFFFFFFFFFFFFFFFFFFFF AND DUP4 PUSH2 0xE3 JUMP JUMPDEST DUP2 PUSH2 0x9E SWAP2 SWAP1 PUSH2 0x169 JUMP JUMPDEST SWAP1 POP PUSH2 0xCC PUSH1 0x1 PUSH1 0x0 SWAP1 SLOAD SWAP1 PUSH2 0x100 EXP SWAP1 DIV PUSH20 0xFFFFFFFFFFFFFFFFFFFFFFFFFFFFFFFFFFFFFFFF AND DUP4 PUSH2 0xE3 JUMP JUMPDEST DUP2 PUSH2 0xD7 SWAP2 SWAP1 PUSH2 0x169 JUMP JUMPDEST SWAP1 POP PUSH1 0x1 SWAP4 POP POP POP POP SWAP1 JUMP JUMPDEST PUSH1 0x0 DUP1 DUP4 PUSH20 0xFFFFFFFFFFFFFFFFFFFFFFFFFFFFFFFFFFFFFFFF AND PUSH2 0x8FC DUP5 SWAP1 DUP2 ISZERO MUL SWAP1 PUSH1 0x40 MLOAD PUSH1 0x0 PUSH1 0x40 MLOAD DUP1 DUP4 SUB DUP2 DUP6 DUP9 DUP9 CALL SWAP4 POP POP POP POP SWAP1 POP PUSH1 0x0 ISZERO ISZERO DUP2 ISZERO ISZERO EQ ISZERO PUSH2 0x133 JUMPI DUP3 SWAP2 POP POP PUSH2 0x139 JUMP JUMPDEST PUSH1 0x0 SWAP2 POP POP JUMPDEST SWAP3 SWAP2 POP POP JUMP JUMPDEST PUSH2 0x148 DUP2 PUSH2 0x1F0 JUMP JUMPDEST DUP3 MSTORE POP POP JUMP JUMPDEST PUSH1 0x0 PUSH1 0x20 DUP3 ADD SWAP1 POP PUSH2 0x163 PUSH1 0x0 DUP4 ADD DUP5 PUSH2 0x13F JUMP JUMPDEST SWAP3 SWAP2 POP POP JUMP JUMPDEST PUSH1 0x0 PUSH2 0x174 DUP3 PUSH2 0x1FC JUMP JUMPDEST SWAP2 POP PUSH2 0x17F DUP4 PUSH2 0x1FC JUMP JUMPDEST SWAP3 POP DUP3 PUSH32 0xFFFFFFFFFFFFFFFFFFFFFFFFFFFFFFFFFFFFFFFFFFFFFFFFFFFFFFFFFFFFFFFF SUB DUP3 GT ISZERO PUSH2 0x1B4 JUMPI PUSH2 0x1B3 PUSH2 0x237 JUMP JUMPDEST JUMPDEST DUP3 DUP3 ADD SWAP1 POP SWAP3 SWAP2 POP POP JUMP JUMPDEST PUSH1 0x0 PUSH2 0x1CA DUP3 PUSH2 0x1FC JUMP JUMPDEST SWAP2 POP PUSH2 0x1D5 DUP4 PUSH2 0x1FC JUMP JUMPDEST SWAP3 POP DUP3 PUSH2 0x1E5 JUMPI PUSH2 0x1E4 PUSH2 0x266 JUMP JUMPDEST JUMPDEST DUP3 DUP3 DIV SWAP1 POP SWAP3 SWAP2 POP POP JUMP JUMPDEST PUSH1 0x0 DUP2 ISZERO ISZERO SWAP1 POP SWAP2 SWAP1 POP JUMP JUMPDEST PUSH1 0x0 DUP2 SWAP1 POP SWAP2 SWAP1 POP JUMP JUMPDEST PUSH1 0x0 PUSH2 0x211 DUP3 PUSH2 0x1FC JUMP JUMPDEST SWAP2 POP PUSH2 0x21C DUP4 PUSH2 0x1FC JUMP JUMPDEST SWAP3 POP DUP3 PUSH2 0x22C JUMPI PUSH2 0x22B PUSH2 0x266 JUMP JUMPDEST JUMPDEST DUP3 DUP3 MOD SWAP1 POP SWAP3 SWAP2 POP POP JUMP JUMPDEST PUSH32 0x4E487B7100000000000000000000000000000000000000000000000000000000 PUSH1 0x0 MSTORE PUSH1 0x11 PUSH1 0x4 MSTORE PUSH1 0x24 PUSH1 0x0 REVERT JUMPDEST PUSH32 0x4E487B7100000000000000000000000000000000000000000000000000000000 PUSH1 0x0 MSTORE PUSH1 0x12 PUSH1 0x4 MSTORE PUSH1 0x24 PUSH1 0x0 REVERT INVALID LOG2 PUSH5 0x6970667358 0x22 SLT KECCAK256 DUP12 XOR SWAP12 PUSH8 0xAE69CFC5C233552F PUSH6 0xF5A5C733F6CA PUSH32 0x56CA5F6345A3A6A6619A87CE64736F6C63430008070033000000000000000000 "
				},
				"gasEstimates": {
					"creation": {
						"codeDepositCost": "143000",
						"executionCost": "infinite",
						"totalCost": "infinite"
					},
					"external": {
						"eth_split()": "infinite"
					},
					"internal": {
						"pay(address payable,uint256)": "infinite"
					}
				},
				"methodIdentifiers": {
					"eth_split()": "5bc8ee65"
				}
			},
			"storageLayout": {
				"storage": [
					{
						"astId": 4,
						"contract": "ethers-waffle-workshops/contracts/EtherSplitter.sol:EtherSplitter",
						"label": "user1",
						"offset": 0,
						"slot": "0",
						"type": "t_address_payable"
					},
					{
						"astId": 6,
						"contract": "ethers-waffle-workshops/contracts/EtherSplitter.sol:EtherSplitter",
						"label": "user2",
						"offset": 0,
						"slot": "1",
						"type": "t_address_payable"
					}
				],
				"types": {
					"t_address_payable": {
						"encoding": "inplace",
						"label": "address payable",
						"numberOfBytes": "20"
					}
				}
			},
			"userdoc": {
				"kind": "user",
				"methods": {},
				"notice": "EtherSplitter Splits transferred Ether",
				"version": 1
			}
		}
	}
}