{
	"ethers-waffle-workshops/contracts/EtherSplitter.sol": {
		"EtherSplitter": {
			"abi": [
				{
					"inputs": [
						{
							"internalType": "address payable",
							"name": "_user1",
							"type": "address"
						},
						{
							"internalType": "address payable",
							"name": "_user2",
							"type": "address"
						}
					],
					"stateMutability": "nonpayable",
					"type": "constructor"
				},
				{
					"inputs": [],
					"name": "eth_split",
					"outputs": [],
					"stateMutability": "payable",
					"type": "function"
				}
			],
			"devdoc": {
				"kind": "dev",
				"methods": {},
				"version": 1
			},
			"evm": {
				"assembly": "    /* \"ethers-waffle-workshops/contracts/EtherSplitter.sol\":78:755  contract EtherSplitter {... */\n  mstore(0x40, 0x80)\n    /* \"ethers-waffle-workshops/contracts/EtherSplitter.sol\":162:277  constructor(address payable _user1, address payable _user2) {... */\n  callvalue\n  dup1\n  iszero\n  tag_1\n  jumpi\n  0x00\n  dup1\n  revert\ntag_1:\n  pop\n  mload(0x40)\n  sub(codesize, bytecodeSize)\n  dup1\n  bytecodeSize\n  dup4\n  codecopy\n  dup2\n  dup2\n  add\n  0x40\n  mstore\n  dup2\n  add\n  swap1\n  tag_2\n  swap2\n  swap1\n  tag_3\n  jump\t// in\ntag_2:\n    /* \"ethers-waffle-workshops/contracts/EtherSplitter.sol\":240:246  _user1 */\n  dup2\n    /* \"ethers-waffle-workshops/contracts/EtherSplitter.sol\":232:237  user1 */\n  0x00\n  dup1\n    /* \"ethers-waffle-workshops/contracts/EtherSplitter.sol\":232:246  user1 = _user1 */\n  0x0100\n  exp\n  dup2\n  sload\n  dup2\n  0xffffffffffffffffffffffffffffffffffffffff\n  mul\n  not\n  and\n  swap1\n  dup4\n  0xffffffffffffffffffffffffffffffffffffffff\n  and\n  mul\n  or\n  swap1\n  sstore\n  pop\n    /* \"ethers-waffle-workshops/contracts/EtherSplitter.sol\":264:270  _user2 */\n  dup1\n    /* \"ethers-waffle-workshops/contracts/EtherSplitter.sol\":256:261  user2 */\n  0x01\n  0x00\n    /* \"ethers-waffle-workshops/contracts/EtherSplitter.sol\":256:270  user2 = _user2 */\n  0x0100\n  exp\n  dup2\n  sload\n  dup2\n  0xffffffffffffffffffffffffffffffffffffffff\n  mul\n  not\n  and\n  swap1\n  dup4\n  0xffffffffffffffffffffffffffffffffffffffff\n  and\n  mul\n  or\n  swap1\n  sstore\n  pop\n    /* \"ethers-waffle-workshops/contracts/EtherSplitter.sol\":162:277  constructor(address payable _user1, address payable _user2) {... */\n  pop\n  pop\n    /* \"ethers-waffle-workshops/contracts/EtherSplitter.sol\":78:755  contract EtherSplitter {... */\n  jump(tag_6)\n    /* \"#utility.yul\":7:166   */\ntag_8:\n    /* \"#utility.yul\":72:77   */\n  0x00\n    /* \"#utility.yul\":103:109   */\n  dup2\n    /* \"#utility.yul\":97:110   */\n  mload\n    /* \"#utility.yul\":88:110   */\n  swap1\n  pop\n    /* \"#utility.yul\":119:160   */\n  tag_10\n    /* \"#utility.yul\":154:159   */\n  dup2\n    /* \"#utility.yul\":119:160   */\n  tag_11\n  jump\t// in\ntag_10:\n    /* \"#utility.yul\":7:166   */\n  swap3\n  swap2\n  pop\n  pop\n  jump\t// out\n    /* \"#utility.yul\":172:711   */\ntag_3:\n    /* \"#utility.yul\":267:273   */\n  0x00\n    /* \"#utility.yul\":275:281   */\n  dup1\n    /* \"#utility.yul\":324:326   */\n  0x40\n    /* \"#utility.yul\":312:321   */\n  dup4\n    /* \"#utility.yul\":303:310   */\n  dup6\n    /* \"#utility.yul\":299:322   */\n  sub\n    /* \"#utility.yul\":295:327   */\n  slt\n    /* \"#utility.yul\":292:411   */\n  iszero\n  tag_13\n  jumpi\n    /* \"#utility.yul\":330:409   */\n  tag_14\n  tag_15\n  jump\t// in\ntag_14:\n    /* \"#utility.yul\":292:411   */\ntag_13:\n    /* \"#utility.yul\":450:451   */\n  0x00\n    /* \"#utility.yul\":475:547   */\n  tag_16\n    /* \"#utility.yul\":539:546   */\n  dup6\n    /* \"#utility.yul\":530:536   */\n  dup3\n    /* \"#utility.yul\":519:528   */\n  dup7\n    /* \"#utility.yul\":515:537   */\n  add\n    /* \"#utility.yul\":475:547   */\n  tag_8\n  jump\t// in\ntag_16:\n    /* \"#utility.yul\":465:547   */\n  swap3\n  pop\n    /* \"#utility.yul\":421:557   */\n  pop\n    /* \"#utility.yul\":596:598   */\n  0x20\n    /* \"#utility.yul\":622:694   */\n  tag_17\n    /* \"#utility.yul\":686:693   */\n  dup6\n    /* \"#utility.yul\":677:683   */\n  dup3\n    /* \"#utility.yul\":666:675   */\n  dup7\n    /* \"#utility.yul\":662:684   */\n  add\n    /* \"#utility.yul\":622:694   */\n  tag_8\n  jump\t// in\ntag_17:\n    /* \"#utility.yul\":612:694   */\n  swap2\n  pop\n    /* \"#utility.yul\":567:704   */\n  pop\n    /* \"#utility.yul\":172:711   */\n  swap3\n  pop\n  swap3\n  swap1\n  pop\n  jump\t// out\n    /* \"#utility.yul\":798:902   */\ntag_20:\n    /* \"#utility.yul\":843:850   */\n  0x00\n    /* \"#utility.yul\":872:896   */\n  tag_22\n    /* \"#utility.yul\":890:895   */\n  dup3\n    /* \"#utility.yul\":872:896   */\n  tag_23\n  jump\t// in\ntag_22:\n    /* \"#utility.yul\":861:896   */\n  swap1\n  pop\n    /* \"#utility.yul\":798:902   */\n  swap2\n  swap1\n  pop\n  jump\t// out\n    /* \"#utility.yul\":908:1034   */\ntag_23:\n    /* \"#utility.yul\":945:952   */\n  0x00\n    /* \"#utility.yul\":985:1027   */\n  0xffffffffffffffffffffffffffffffffffffffff\n    /* \"#utility.yul\":978:983   */\n  dup3\n    /* \"#utility.yul\":974:1028   */\n  and\n    /* \"#utility.yul\":963:1028   */\n  swap1\n  pop\n    /* \"#utility.yul\":908:1034   */\n  swap2\n  swap1\n  pop\n  jump\t// out\n    /* \"#utility.yul\":1163:1280   */\ntag_15:\n    /* \"#utility.yul\":1272:1273   */\n  0x00\n    /* \"#utility.yul\":1269:1270   */\n  dup1\n    /* \"#utility.yul\":1262:1274   */\n  revert\n    /* \"#utility.yul\":1286:1424   */\ntag_11:\n    /* \"#utility.yul\":1367:1399   */\n  tag_29\n    /* \"#utility.yul\":1393:1398   */\n  dup2\n    /* \"#utility.yul\":1367:1399   */\n  tag_20\n  jump\t// in\ntag_29:\n    /* \"#utility.yul\":1360:1365   */\n  dup2\n    /* \"#utility.yul\":1357:1400   */\n  eq\n    /* \"#utility.yul\":1347:1418   */\n  tag_30\n  jumpi\n    /* \"#utility.yul\":1414:1415   */\n  0x00\n    /* \"#utility.yul\":1411:1412   */\n  dup1\n    /* \"#utility.yul\":1404:1416   */\n  revert\n    /* \"#utility.yul\":1347:1418   */\ntag_30:\n    /* \"#utility.yul\":1286:1424   */\n  pop\n  jump\t// out\n    /* \"ethers-waffle-workshops/contracts/EtherSplitter.sol\":78:755  contract EtherSplitter {... */\ntag_6:\n  dataSize(sub_0)\n  dup1\n  dataOffset(sub_0)\n  0x00\n  codecopy\n  0x00\n  return\nstop\n\nsub_0: assembly {\n        /* \"ethers-waffle-workshops/contracts/EtherSplitter.sol\":78:755  contract EtherSplitter {... */\n      mstore(0x40, 0x80)\n      jumpi(tag_1, lt(calldatasize, 0x04))\n      shr(0xe0, calldataload(0x00))\n      dup1\n      0x5bc8ee65\n      eq\n      tag_2\n      jumpi\n    tag_1:\n      0x00\n      dup1\n      revert\n        /* \"ethers-waffle-workshops/contracts/EtherSplitter.sol\":531:753  function eth_split() payable public ethNeeded {... */\n    tag_2:\n      tag_3\n      tag_4\n      jump\t// in\n    tag_3:\n      stop\n    tag_4:\n        /* \"ethers-waffle-workshops/contracts/EtherSplitter.sol\":336:337  0 */\n      0x00\n        /* \"ethers-waffle-workshops/contracts/EtherSplitter.sol\":324:333  msg.value */\n      callvalue\n        /* \"ethers-waffle-workshops/contracts/EtherSplitter.sol\":324:337  msg.value > 0 */\n      gt\n        /* \"ethers-waffle-workshops/contracts/EtherSplitter.sol\":316:392  require(msg.value > 0, \"You must provide ETH to be split between addresses\") */\n      tag_6\n      jumpi\n      mload(0x40)\n      0x08c379a000000000000000000000000000000000000000000000000000000000\n      dup2\n      mstore\n      0x04\n      add\n      tag_7\n      swap1\n      tag_8\n      jump\t// in\n    tag_7:\n      mload(0x40)\n      dup1\n      swap2\n      sub\n      swap1\n      revert\n    tag_6:\n        /* \"ethers-waffle-workshops/contracts/EtherSplitter.sol\":587:595  uint eth */\n      0x00\n        /* \"ethers-waffle-workshops/contracts/EtherSplitter.sol\":598:607  msg.value */\n      callvalue\n        /* \"ethers-waffle-workshops/contracts/EtherSplitter.sol\":587:607  uint eth = msg.value */\n      swap1\n      pop\n        /* \"ethers-waffle-workshops/contracts/EtherSplitter.sol\":617:633  uint payable_eth */\n      0x00\n        /* \"ethers-waffle-workshops/contracts/EtherSplitter.sol\":642:643  2 */\n      0x02\n        /* \"ethers-waffle-workshops/contracts/EtherSplitter.sol\":636:639  eth */\n      dup3\n        /* \"ethers-waffle-workshops/contracts/EtherSplitter.sol\":636:643  eth / 2 */\n      tag_10\n      swap2\n      swap1\n      tag_11\n      jump\t// in\n    tag_10:\n        /* \"ethers-waffle-workshops/contracts/EtherSplitter.sol\":617:643  uint payable_eth = eth / 2 */\n      swap1\n      pop\n        /* \"ethers-waffle-workshops/contracts/EtherSplitter.sol\":653:663  bool check */\n      0x00\n        /* \"ethers-waffle-workshops/contracts/EtherSplitter.sol\":682:705  pay(user1, payable_eth) */\n      tag_12\n        /* \"ethers-waffle-workshops/contracts/EtherSplitter.sol\":686:691  user1 */\n      0x00\n      dup1\n      sload\n      swap1\n      0x0100\n      exp\n      swap1\n      div\n      0xffffffffffffffffffffffffffffffffffffffff\n      and\n        /* \"ethers-waffle-workshops/contracts/EtherSplitter.sol\":693:704  payable_eth */\n      dup4\n        /* \"ethers-waffle-workshops/contracts/EtherSplitter.sol\":682:685  pay */\n      tag_13\n        /* \"ethers-waffle-workshops/contracts/EtherSplitter.sol\":682:705  pay(user1, payable_eth) */\n      jump\t// in\n    tag_12:\n        /* \"ethers-waffle-workshops/contracts/EtherSplitter.sol\":674:705  check = pay(user1, payable_eth) */\n      swap1\n      pop\n        /* \"ethers-waffle-workshops/contracts/EtherSplitter.sol\":723:746  pay(user2, payable_eth) */\n      tag_14\n        /* \"ethers-waffle-workshops/contracts/EtherSplitter.sol\":727:732  user2 */\n      0x01\n      0x00\n      swap1\n      sload\n      swap1\n      0x0100\n      exp\n      swap1\n      div\n      0xffffffffffffffffffffffffffffffffffffffff\n      and\n        /* \"ethers-waffle-workshops/contracts/EtherSplitter.sol\":734:745  payable_eth */\n      dup4\n        /* \"ethers-waffle-workshops/contracts/EtherSplitter.sol\":723:726  pay */\n      tag_13\n        /* \"ethers-waffle-workshops/contracts/EtherSplitter.sol\":723:746  pay(user2, payable_eth) */\n      jump\t// in\n    tag_14:\n        /* \"ethers-waffle-workshops/contracts/EtherSplitter.sol\":715:746  check = pay(user2, payable_eth) */\n      swap1\n      pop\n        /* \"ethers-waffle-workshops/contracts/EtherSplitter.sol\":577:753  {... */\n      pop\n      pop\n      pop\n        /* \"ethers-waffle-workshops/contracts/EtherSplitter.sol\":531:753  function eth_split() payable public ethNeeded {... */\n      jump\t// out\n        /* \"ethers-waffle-workshops/contracts/EtherSplitter.sol\":416:525  function pay(address payable addr, uint sum) private returns (bool ok) {... */\n    tag_13:\n        /* \"ethers-waffle-workshops/contracts/EtherSplitter.sol\":478:485  bool ok */\n      0x00\n        /* \"ethers-waffle-workshops/contracts/EtherSplitter.sol\":504:508  addr */\n      dup3\n        /* \"ethers-waffle-workshops/contracts/EtherSplitter.sol\":504:513  addr.send */\n      0xffffffffffffffffffffffffffffffffffffffff\n      and\n        /* \"ethers-waffle-workshops/contracts/EtherSplitter.sol\":504:518  addr.send(sum) */\n      0x08fc\n        /* \"ethers-waffle-workshops/contracts/EtherSplitter.sol\":514:517  sum */\n      dup4\n        /* \"ethers-waffle-workshops/contracts/EtherSplitter.sol\":504:518  addr.send(sum) */\n      swap1\n      dup2\n      iszero\n      mul\n      swap1\n      mload(0x40)\n      0x00\n      mload(0x40)\n      dup1\n      dup4\n      sub\n      dup2\n      dup6\n      dup9\n      dup9\n      call\n      swap4\n      pop\n      pop\n      pop\n      pop\n        /* \"ethers-waffle-workshops/contracts/EtherSplitter.sol\":497:518  return addr.send(sum) */\n      swap1\n      pop\n        /* \"ethers-waffle-workshops/contracts/EtherSplitter.sol\":416:525  function pay(address payable addr, uint sum) private returns (bool ok) {... */\n      swap3\n      swap2\n      pop\n      pop\n      jump\t// out\n        /* \"#utility.yul\":7:373   */\n    tag_18:\n        /* \"#utility.yul\":149:152   */\n      0x00\n        /* \"#utility.yul\":170:237   */\n      tag_20\n        /* \"#utility.yul\":234:236   */\n      0x32\n        /* \"#utility.yul\":229:232   */\n      dup4\n        /* \"#utility.yul\":170:237   */\n      tag_21\n      jump\t// in\n    tag_20:\n        /* \"#utility.yul\":163:237   */\n      swap2\n      pop\n        /* \"#utility.yul\":246:339   */\n      tag_22\n        /* \"#utility.yul\":335:338   */\n      dup3\n        /* \"#utility.yul\":246:339   */\n      tag_23\n      jump\t// in\n    tag_22:\n        /* \"#utility.yul\":364:366   */\n      0x40\n        /* \"#utility.yul\":359:362   */\n      dup3\n        /* \"#utility.yul\":355:367   */\n      add\n        /* \"#utility.yul\":348:367   */\n      swap1\n      pop\n        /* \"#utility.yul\":7:373   */\n      swap2\n      swap1\n      pop\n      jump\t// out\n        /* \"#utility.yul\":379:798   */\n    tag_8:\n        /* \"#utility.yul\":545:549   */\n      0x00\n        /* \"#utility.yul\":583:585   */\n      0x20\n        /* \"#utility.yul\":572:581   */\n      dup3\n        /* \"#utility.yul\":568:586   */\n      add\n        /* \"#utility.yul\":560:586   */\n      swap1\n      pop\n        /* \"#utility.yul\":632:641   */\n      dup2\n        /* \"#utility.yul\":626:630   */\n      dup2\n        /* \"#utility.yul\":622:642   */\n      sub\n        /* \"#utility.yul\":618:619   */\n      0x00\n        /* \"#utility.yul\":607:616   */\n      dup4\n        /* \"#utility.yul\":603:620   */\n      add\n        /* \"#utility.yul\":596:643   */\n      mstore\n        /* \"#utility.yul\":660:791   */\n      tag_25\n        /* \"#utility.yul\":786:790   */\n      dup2\n        /* \"#utility.yul\":660:791   */\n      tag_18\n      jump\t// in\n    tag_25:\n        /* \"#utility.yul\":652:791   */\n      swap1\n      pop\n        /* \"#utility.yul\":379:798   */\n      swap2\n      swap1\n      pop\n      jump\t// out\n        /* \"#utility.yul\":804:973   */\n    tag_21:\n        /* \"#utility.yul\":888:899   */\n      0x00\n        /* \"#utility.yul\":922:928   */\n      dup3\n        /* \"#utility.yul\":917:920   */\n      dup3\n        /* \"#utility.yul\":910:929   */\n      mstore\n        /* \"#utility.yul\":962:966   */\n      0x20\n        /* \"#utility.yul\":957:960   */\n      dup3\n        /* \"#utility.yul\":953:967   */\n      add\n        /* \"#utility.yul\":938:967   */\n      swap1\n      pop\n        /* \"#utility.yul\":804:973   */\n      swap3\n      swap2\n      pop\n      pop\n      jump\t// out\n        /* \"#utility.yul\":979:1164   */\n    tag_11:\n        /* \"#utility.yul\":1019:1020   */\n      0x00\n        /* \"#utility.yul\":1036:1056   */\n      tag_28\n        /* \"#utility.yul\":1054:1055   */\n      dup3\n        /* \"#utility.yul\":1036:1056   */\n      tag_29\n      jump\t// in\n    tag_28:\n        /* \"#utility.yul\":1031:1056   */\n      swap2\n      pop\n        /* \"#utility.yul\":1070:1090   */\n      tag_30\n        /* \"#utility.yul\":1088:1089   */\n      dup4\n        /* \"#utility.yul\":1070:1090   */\n      tag_29\n      jump\t// in\n    tag_30:\n        /* \"#utility.yul\":1065:1090   */\n      swap3\n      pop\n        /* \"#utility.yul\":1109:1110   */\n      dup3\n        /* \"#utility.yul\":1099:1134   */\n      tag_31\n      jumpi\n        /* \"#utility.yul\":1114:1132   */\n      tag_32\n      tag_33\n      jump\t// in\n    tag_32:\n        /* \"#utility.yul\":1099:1134   */\n    tag_31:\n        /* \"#utility.yul\":1156:1157   */\n      dup3\n        /* \"#utility.yul\":1153:1154   */\n      dup3\n        /* \"#utility.yul\":1149:1158   */\n      div\n        /* \"#utility.yul\":1144:1158   */\n      swap1\n      pop\n        /* \"#utility.yul\":979:1164   */\n      swap3\n      swap2\n      pop\n      pop\n      jump\t// out\n        /* \"#utility.yul\":1170:1247   */\n    tag_29:\n        /* \"#utility.yul\":1207:1214   */\n      0x00\n        /* \"#utility.yul\":1236:1241   */\n      dup2\n        /* \"#utility.yul\":1225:1241   */\n      swap1\n      pop\n        /* \"#utility.yul\":1170:1247   */\n      swap2\n      swap1\n      pop\n      jump\t// out\n        /* \"#utility.yul\":1439:1619   */\n    tag_33:\n        /* \"#utility.yul\":1487:1564   */\n      0x4e487b7100000000000000000000000000000000000000000000000000000000\n        /* \"#utility.yul\":1484:1485   */\n      0x00\n        /* \"#utility.yul\":1477:1565   */\n      mstore\n        /* \"#utility.yul\":1584:1588   */\n      0x12\n        /* \"#utility.yul\":1581:1582   */\n      0x04\n        /* \"#utility.yul\":1574:1589   */\n      mstore\n        /* \"#utility.yul\":1608:1612   */\n      0x24\n        /* \"#utility.yul\":1605:1606   */\n      0x00\n        /* \"#utility.yul\":1598:1613   */\n      revert\n        /* \"#utility.yul\":1625:1862   */\n    tag_23:\n        /* \"#utility.yul\":1765:1799   */\n      0x596f75206d7573742070726f766964652045544820746f2062652073706c6974\n        /* \"#utility.yul\":1761:1762   */\n      0x00\n        /* \"#utility.yul\":1753:1759   */\n      dup3\n        /* \"#utility.yul\":1749:1763   */\n      add\n        /* \"#utility.yul\":1742:1800   */\n      mstore\n        /* \"#utility.yul\":1834:1854   */\n      0x206265747765656e206164647265737365730000000000000000000000000000\n        /* \"#utility.yul\":1829:1831   */\n      0x20\n        /* \"#utility.yul\":1821:1827   */\n      dup3\n        /* \"#utility.yul\":1817:1832   */\n      add\n        /* \"#utility.yul\":1810:1855   */\n      mstore\n        /* \"#utility.yul\":1625:1862   */\n      pop\n      jump\t// out\n\n    auxdata: 0xa264697066735822122060812456da6755edcf44d3dc99ad78236047ba9a007326b2747b0f10faa680f364736f6c63430008070033\n}\n",
				"bytecode": {
					"linkReferences": {},
					"object": "608060405234801561001057600080fd5b506040516103d53803806103d5833981810160405281019061003291906100cf565b816000806101000a81548173ffffffffffffffffffffffffffffffffffffffff021916908373ffffffffffffffffffffffffffffffffffffffff16021790555080600160006101000a81548173ffffffffffffffffffffffffffffffffffffffff021916908373ffffffffffffffffffffffffffffffffffffffff160217905550505061015d565b6000815190506100c981610146565b92915050565b600080604083850312156100e6576100e5610141565b5b60006100f4858286016100ba565b9250506020610105858286016100ba565b9150509250929050565b600061011a82610121565b9050919050565b600073ffffffffffffffffffffffffffffffffffffffff82169050919050565b600080fd5b61014f8161010f565b811461015a57600080fd5b50565b6102698061016c6000396000f3fe60806040526004361061001e5760003560e01c80635bc8ee6514610023575b600080fd5b61002b61002d565b005b60003411610070576040517f08c379a000000000000000000000000000000000000000000000000000000000815260040161006790610149565b60405180910390fd5b60003490506000600282610084919061017a565b905060006100b260008054906101000a900473ffffffffffffffffffffffffffffffffffffffff16836100e7565b90506100e0600160009054906101000a900473ffffffffffffffffffffffffffffffffffffffff16836100e7565b9050505050565b60008273ffffffffffffffffffffffffffffffffffffffff166108fc839081150290604051600060405180830381858888f19350505050905092915050565b6000610133603283610169565b915061013e826101e4565b604082019050919050565b6000602082019050818103600083015261016281610126565b9050919050565b600082825260208201905092915050565b6000610185826101ab565b9150610190836101ab565b9250826101a05761019f6101b5565b5b828204905092915050565b6000819050919050565b7f4e487b7100000000000000000000000000000000000000000000000000000000600052601260045260246000fd5b7f596f75206d7573742070726f766964652045544820746f2062652073706c697460008201527f206265747765656e20616464726573736573000000000000000000000000000060208201525056fea264697066735822122060812456da6755edcf44d3dc99ad78236047ba9a007326b2747b0f10faa680f364736f6c63430008070033",
					"opcodes": "PUSH1 0x80 PUSH1 0x40 MSTORE CALLVALUE DUP1 ISZERO PUSH2 0x10 JUMPI PUSH1 0x0 DUP1 REVERT JUMPDEST POP PUSH1 0x40 MLOAD PUSH2 0x3D5 CODESIZE SUB DUP1 PUSH2 0x3D5 DUP4 CODECOPY DUP2 DUP2 ADD PUSH1 0x40 MSTORE DUP2 ADD SWAP1 PUSH2 0x32 SWAP2 SWAP1 PUSH2 0xCF JUMP JUMPDEST DUP2 PUSH1 0x0 DUP1 PUSH2 0x100 EXP DUP2 SLOAD DUP2 PUSH20 0xFFFFFFFFFFFFFFFFFFFFFFFFFFFFFFFFFFFFFFFF MUL NOT AND SWAP1 DUP4 PUSH20 0xFFFFFFFFFFFFFFFFFFFFFFFFFFFFFFFFFFFFFFFF AND MUL OR SWAP1 SSTORE POP DUP1 PUSH1 0x1 PUSH1 0x0 PUSH2 0x100 EXP DUP2 SLOAD DUP2 PUSH20 0xFFFFFFFFFFFFFFFFFFFFFFFFFFFFFFFFFFFFFFFF MUL NOT AND SWAP1 DUP4 PUSH20 0xFFFFFFFFFFFFFFFFFFFFFFFFFFFFFFFFFFFFFFFF AND MUL OR SWAP1 SSTORE POP POP POP PUSH2 0x15D JUMP JUMPDEST PUSH1 0x0 DUP2 MLOAD SWAP1 POP PUSH2 0xC9 DUP2 PUSH2 0x146 JUMP JUMPDEST SWAP3 SWAP2 POP POP JUMP JUMPDEST PUSH1 0x0 DUP1 PUSH1 0x40 DUP4 DUP6 SUB SLT ISZERO PUSH2 0xE6 JUMPI PUSH2 0xE5 PUSH2 0x141 JUMP JUMPDEST JUMPDEST PUSH1 0x0 PUSH2 0xF4 DUP6 DUP3 DUP7 ADD PUSH2 0xBA JUMP JUMPDEST SWAP3 POP POP PUSH1 0x20 PUSH2 0x105 DUP6 DUP3 DUP7 ADD PUSH2 0xBA JUMP JUMPDEST SWAP2 POP POP SWAP3 POP SWAP3 SWAP1 POP JUMP JUMPDEST PUSH1 0x0 PUSH2 0x11A DUP3 PUSH2 0x121 JUMP JUMPDEST SWAP1 POP SWAP2 SWAP1 POP JUMP JUMPDEST PUSH1 0x0 PUSH20 0xFFFFFFFFFFFFFFFFFFFFFFFFFFFFFFFFFFFFFFFF DUP3 AND SWAP1 POP SWAP2 SWAP1 POP JUMP JUMPDEST PUSH1 0x0 DUP1 REVERT JUMPDEST PUSH2 0x14F DUP2 PUSH2 0x10F JUMP JUMPDEST DUP2 EQ PUSH2 0x15A JUMPI PUSH1 0x0 DUP1 REVERT JUMPDEST POP JUMP JUMPDEST PUSH2 0x269 DUP1 PUSH2 0x16C PUSH1 0x0 CODECOPY PUSH1 0x0 RETURN INVALID PUSH1 0x80 PUSH1 0x40 MSTORE PUSH1 0x4 CALLDATASIZE LT PUSH2 0x1E JUMPI PUSH1 0x0 CALLDATALOAD PUSH1 0xE0 SHR DUP1 PUSH4 0x5BC8EE65 EQ PUSH2 0x23 JUMPI JUMPDEST PUSH1 0x0 DUP1 REVERT JUMPDEST PUSH2 0x2B PUSH2 0x2D JUMP JUMPDEST STOP JUMPDEST PUSH1 0x0 CALLVALUE GT PUSH2 0x70 JUMPI PUSH1 0x40 MLOAD PUSH32 0x8C379A000000000000000000000000000000000000000000000000000000000 DUP2 MSTORE PUSH1 0x4 ADD PUSH2 0x67 SWAP1 PUSH2 0x149 JUMP JUMPDEST PUSH1 0x40 MLOAD DUP1 SWAP2 SUB SWAP1 REVERT JUMPDEST PUSH1 0x0 CALLVALUE SWAP1 POP PUSH1 0x0 PUSH1 0x2 DUP3 PUSH2 0x84 SWAP2 SWAP1 PUSH2 0x17A JUMP JUMPDEST SWAP1 POP PUSH1 0x0 PUSH2 0xB2 PUSH1 0x0 DUP1 SLOAD SWAP1 PUSH2 0x100 EXP SWAP1 DIV PUSH20 0xFFFFFFFFFFFFFFFFFFFFFFFFFFFFFFFFFFFFFFFF AND DUP4 PUSH2 0xE7 JUMP JUMPDEST SWAP1 POP PUSH2 0xE0 PUSH1 0x1 PUSH1 0x0 SWAP1 SLOAD SWAP1 PUSH2 0x100 EXP SWAP1 DIV PUSH20 0xFFFFFFFFFFFFFFFFFFFFFFFFFFFFFFFFFFFFFFFF AND DUP4 PUSH2 0xE7 JUMP JUMPDEST SWAP1 POP POP POP POP JUMP JUMPDEST PUSH1 0x0 DUP3 PUSH20 0xFFFFFFFFFFFFFFFFFFFFFFFFFFFFFFFFFFFFFFFF AND PUSH2 0x8FC DUP4 SWAP1 DUP2 ISZERO MUL SWAP1 PUSH1 0x40 MLOAD PUSH1 0x0 PUSH1 0x40 MLOAD DUP1 DUP4 SUB DUP2 DUP6 DUP9 DUP9 CALL SWAP4 POP POP POP POP SWAP1 POP SWAP3 SWAP2 POP POP JUMP JUMPDEST PUSH1 0x0 PUSH2 0x133 PUSH1 0x32 DUP4 PUSH2 0x169 JUMP JUMPDEST SWAP2 POP PUSH2 0x13E DUP3 PUSH2 0x1E4 JUMP JUMPDEST PUSH1 0x40 DUP3 ADD SWAP1 POP SWAP2 SWAP1 POP JUMP JUMPDEST PUSH1 0x0 PUSH1 0x20 DUP3 ADD SWAP1 POP DUP2 DUP2 SUB PUSH1 0x0 DUP4 ADD MSTORE PUSH2 0x162 DUP2 PUSH2 0x126 JUMP JUMPDEST SWAP1 POP SWAP2 SWAP1 POP JUMP JUMPDEST PUSH1 0x0 DUP3 DUP3 MSTORE PUSH1 0x20 DUP3 ADD SWAP1 POP SWAP3 SWAP2 POP POP JUMP JUMPDEST PUSH1 0x0 PUSH2 0x185 DUP3 PUSH2 0x1AB JUMP JUMPDEST SWAP2 POP PUSH2 0x190 DUP4 PUSH2 0x1AB JUMP JUMPDEST SWAP3 POP DUP3 PUSH2 0x1A0 JUMPI PUSH2 0x19F PUSH2 0x1B5 JUMP JUMPDEST JUMPDEST DUP3 DUP3 DIV SWAP1 POP SWAP3 SWAP2 POP POP JUMP JUMPDEST PUSH1 0x0 DUP2 SWAP1 POP SWAP2 SWAP1 POP JUMP JUMPDEST PUSH32 0x4E487B7100000000000000000000000000000000000000000000000000000000 PUSH1 0x0 MSTORE PUSH1 0x12 PUSH1 0x4 MSTORE PUSH1 0x24 PUSH1 0x0 REVERT JUMPDEST PUSH32 0x596F75206D7573742070726F766964652045544820746F2062652073706C6974 PUSH1 0x0 DUP3 ADD MSTORE PUSH32 0x206265747765656E206164647265737365730000000000000000000000000000 PUSH1 0x20 DUP3 ADD MSTORE POP JUMP INVALID LOG2 PUSH5 0x6970667358 0x22 SLT KECCAK256 PUSH1 0x81 0x24 JUMP 0xDA PUSH8 0x55EDCF44D3DC99AD PUSH25 0x236047BA9A007326B2747B0F10FAA680F364736F6C63430008 SMOD STOP CALLER "
				},
				"gasEstimates": {
					"creation": {
						"codeDepositCost": "123400",
						"executionCost": "infinite",
						"totalCost": "infinite"
					},
					"external": {
						"eth_split()": "infinite"
					},
					"internal": {
						"pay(address payable,uint256)": "infinite"
					}
				},
				"methodIdentifiers": {
					"eth_split()": "5bc8ee65"
				}
			},
			"storageLayout": {
				"storage": [
					{
						"astId": 4,
						"contract": "ethers-waffle-workshops/contracts/EtherSplitter.sol:EtherSplitter",
						"label": "user1",
						"offset": 0,
						"slot": "0",
						"type": "t_address_payable"
					},
					{
						"astId": 6,
						"contract": "ethers-waffle-workshops/contracts/EtherSplitter.sol:EtherSplitter",
						"label": "user2",
						"offset": 0,
						"slot": "1",
						"type": "t_address_payable"
					}
				],
				"types": {
					"t_address_payable": {
						"encoding": "inplace",
						"label": "address payable",
						"numberOfBytes": "20"
					}
				}
			},
			"userdoc": {
				"kind": "user",
				"methods": {},
				"notice": "EtherSplitter Splits transferred Ether",
				"version": 1
			}
		}
	}
}